{
  "address": "0x47480483542D52294DC504959bb7D555CBe2C10b",
  "abi": [
    {
      "inputs": [],
      "name": "campaignCount",
      "outputs": [
        {
          "internalType": "uint256",
          "name": "",
          "type": "uint256"
        }
      ],
      "stateMutability": "view",
      "type": "function"
    },
    {
      "inputs": [
        {
          "internalType": "uint256",
          "name": "",
          "type": "uint256"
        }
      ],
      "name": "campaigns",
      "outputs": [
        {
          "internalType": "address payable",
          "name": "owner",
          "type": "address"
        },
        {
          "internalType": "string",
          "name": "title",
          "type": "string"
        },
        {
          "internalType": "string",
          "name": "description",
          "type": "string"
        },
        {
          "internalType": "uint256",
          "name": "id",
          "type": "uint256"
        },
        {
          "internalType": "uint256",
          "name": "goal",
          "type": "uint256"
        },
        {
          "internalType": "uint256",
          "name": "deadline",
          "type": "uint256"
        },
        {
          "internalType": "uint256",
          "name": "raised",
          "type": "uint256"
        },
        {
          "internalType": "string",
          "name": "image",
          "type": "string"
        },
        {
          "internalType": "bool",
          "name": "isArchived",
          "type": "bool"
        }
      ],
      "stateMutability": "view",
      "type": "function"
    },
    {
      "inputs": [
        {
          "internalType": "uint256",
          "name": "_id",
          "type": "uint256"
        }
      ],
      "name": "contributeToCampaign",
      "outputs": [],
      "stateMutability": "payable",
      "type": "function"
    },
    {
      "inputs": [
        {
          "internalType": "address",
          "name": "_owner",
          "type": "address"
        },
        {
          "internalType": "string",
          "name": "_title",
          "type": "string"
        },
        {
          "internalType": "string",
          "name": "_description",
          "type": "string"
        },
        {
          "internalType": "uint256",
          "name": "_goal",
          "type": "uint256"
        },
        {
          "internalType": "uint256",
          "name": "_deadline",
          "type": "uint256"
        },
        {
          "internalType": "string",
          "name": "_image",
          "type": "string"
        }
      ],
      "name": "createCampaign",
      "outputs": [
        {
          "internalType": "uint256",
          "name": "",
          "type": "uint256"
        }
      ],
      "stateMutability": "nonpayable",
      "type": "function"
    },
    {
      "inputs": [],
      "name": "getCampaigns",
      "outputs": [
        {
          "components": [
            {
              "internalType": "address payable",
              "name": "owner",
              "type": "address"
            },
            {
              "internalType": "string",
              "name": "title",
              "type": "string"
            },
            {
              "internalType": "string",
              "name": "description",
              "type": "string"
            },
            {
              "internalType": "uint256",
              "name": "id",
              "type": "uint256"
            },
            {
              "internalType": "uint256",
              "name": "goal",
              "type": "uint256"
            },
            {
              "internalType": "uint256",
              "name": "deadline",
              "type": "uint256"
            },
            {
              "internalType": "uint256",
              "name": "raised",
              "type": "uint256"
            },
            {
              "internalType": "string",
              "name": "image",
              "type": "string"
            },
            {
              "internalType": "address[]",
              "name": "contributors",
              "type": "address[]"
            },
            {
              "internalType": "uint256[]",
              "name": "contributions",
              "type": "uint256[]"
            },
            {
              "internalType": "bool",
              "name": "isArchived",
              "type": "bool"
            }
          ],
          "internalType": "struct Crowdfunding.Campaign[]",
          "name": "",
          "type": "tuple[]"
        }
      ],
      "stateMutability": "view",
      "type": "function"
    },
    {
      "inputs": [
        {
          "internalType": "uint256",
          "name": "_id",
          "type": "uint256"
        }
      ],
      "name": "getContributors",
      "outputs": [
        {
          "internalType": "address[]",
          "name": "",
          "type": "address[]"
        },
        {
          "internalType": "uint256[]",
          "name": "",
          "type": "uint256[]"
        }
      ],
      "stateMutability": "view",
      "type": "function"
    },
    {
      "inputs": [
        {
          "internalType": "uint256",
          "name": "_id",
          "type": "uint256"
        }
      ],
      "name": "withdrawFunds",
      "outputs": [],
      "stateMutability": "payable",
      "type": "function"
    }
  ],
  "transactionHash": "0x7ef2be61fd9b91b08c79054a6f33c400e905fa64915a7cce988a0a6805c0f5ed",
  "args": [],
  "numDeployments": 1,
  "solcInputHash": "5dff7c78eaddf2bbaaa46cd66d52d5ff",
  "bytecode": "0x6080604052600060015534801561001557600080fd5b506111ef806100256000396000f3fe6080604052600436106100705760003560e01c80633c1ab00f1161004e5780633c1ab00f146100db5780637274e30d146101095780639943e3a11461012d578063a6b036331461014d57600080fd5b80630b7ef89b14610075578063141961bc1461008a578063155dd5ee146100c8575b600080fd5b610088610083366004610bb1565b61016f565b005b34801561009657600080fd5b506100aa6100a5366004610bb1565b6102c7565b6040516100bf99989796959493929190610c10565b60405180910390f35b6100886100d6366004610bb1565b6104b3565b3480156100e757600080fd5b506100fb6100f6366004610bb1565b61062c565b6040516100bf929190610c8f565b34801561011557600080fd5b5061011f60015481565b6040519081526020016100bf565b34801561013957600080fd5b5061011f610148366004610db6565b6106fb565b34801561015957600080fd5b506101626107e8565b6040516100bf9190610ee5565b6000818152602081905260409020346101d95760405162461bcd60e51b815260206004820152602160248201527f4d75737420636f6e74726962757465206120706f73697469766520616d6f756e6044820152601d60fa1b60648201526084015b60405180910390fd5b428160050154116102215760405162461bcd60e51b815260206004820152601260248201527110d85b5c185a59db881a185cc8195b99195960721b60448201526064016101d0565b600a81015460ff161561026d5760405162461bcd60e51b815260206004820152601460248201527310d85b5c185a59db881a5cc8185c98da1a5d995960621b60448201526064016101d0565b34816006016000828254610281919061102c565b9091555050600881018054600181810183556000928352602080842090920180546001600160a01b03191633179055600990930180549384018155825290203491015550565b600060208190529081526040902080546001820180546001600160a01b0390921692916102f390611045565b80601f016020809104026020016040519081016040528092919081815260200182805461031f90611045565b801561036c5780601f106103415761010080835404028352916020019161036c565b820191906000526020600020905b81548152906001019060200180831161034f57829003601f168201915b50505050509080600201805461038190611045565b80601f01602080910402602001604051908101604052809291908181526020018280546103ad90611045565b80156103fa5780601f106103cf576101008083540402835291602001916103fa565b820191906000526020600020905b8154815290600101906020018083116103dd57829003601f168201915b50505050509080600301549080600401549080600501549080600601549080600701805461042790611045565b80601f016020809104026020016040519081016040528092919081815260200182805461045390611045565b80156104a05780601f10610475576101008083540402835291602001916104a0565b820191906000526020600020905b81548152906001019060200180831161048357829003601f168201915b505050600a909301549192505060ff1689565b60008181526020819052604090205481906001600160a01b031633146105255760405162461bcd60e51b815260206004820152602160248201527f4f6e6c79206f776e65722063616e2063616c6c20746869732066756e6374696f6044820152603760f91b60648201526084016101d0565b600082815260208190526040902060048101546006820154101561058b5760405162461bcd60e51b815260206004820152601d60248201527f43616d706169676e20686173206e6f74207265616368656420676f616c00000060448201526064016101d0565b600681015460405160009133918381818185875af1925050503d80600081146105d0576040519150601f19603f3d011682016040523d82523d6000602084013e6105d5565b606091505b50509050806106195760405162461bcd60e51b815260206004820152601060248201526f2a3930b739b332b9103330b4b632b21760811b60448201526064016101d0565b50600a01805460ff191660011790555050565b6000818152602081815260409182902060088101805484518185028101850190955280855260609485949293600901929091849183018282801561069957602002820191906000526020600020905b81546001600160a01b0316815260019091019060200180831161067b575b50505050509150808054806020026020016040519081016040528092919081815260200182805480156106eb57602002820191906000526020600020905b8154815260200190600101908083116106d7575b5050505050905091509150915091565b600154600090815260208190526040812042841161075b5760405162461bcd60e51b815260206004820152601a60248201527f446561646c696e65206d75737420626520696e2066757475726500000000000060448201526064016101d0565b80546001600160a01b03191633908117825597506001810161077d88826110ca565b506002810161078c87826110ca565b50600481018590556005810184905560006006820155600781016107b084826110ca565b50600a8101805460ff1916905560018054600383018190559060006107d48361118a565b909155505060015498975050505050505050565b6060600060015467ffffffffffffffff81111561080757610807610d13565b6040519080825280602002602001820160405280156108a057816020015b61088d60405180610160016040528060006001600160a01b031681526020016060815260200160608152602001600081526020016000815260200160008152602001600081526020016060815260200160608152602001606081526020016000151581525090565b8152602001906001900390816108255790505b50905060005b600154811015610bab57600081815260208181526040918290208251610160810190935280546001600160a01b0316835260018101805491928401916108eb90611045565b80601f016020809104026020016040519081016040528092919081815260200182805461091790611045565b80156109645780601f1061093957610100808354040283529160200191610964565b820191906000526020600020905b81548152906001019060200180831161094757829003601f168201915b5050505050815260200160028201805461097d90611045565b80601f01602080910402602001604051908101604052809291908181526020018280546109a990611045565b80156109f65780601f106109cb576101008083540402835291602001916109f6565b820191906000526020600020905b8154815290600101906020018083116109d957829003601f168201915b5050505050815260200160038201548152602001600482015481526020016005820154815260200160068201548152602001600782018054610a3790611045565b80601f0160208091040260200160405190810160405280929190818152602001828054610a6390611045565b8015610ab05780601f10610a8557610100808354040283529160200191610ab0565b820191906000526020600020905b815481529060010190602001808311610a9357829003601f168201915b5050505050815260200160088201805480602002602001604051908101604052809291908181526020018280548015610b1257602002820191906000526020600020905b81546001600160a01b03168152600190910190602001808311610af4575b5050505050815260200160098201805480602002602001604051908101604052809291908181526020018280548015610b6a57602002820191906000526020600020905b815481526020019060010190808311610b56575b5050509183525050600a919091015460ff1615156020909101528251839083908110610b9857610b986111a3565b60209081029190910101526001016108a6565b50919050565b600060208284031215610bc357600080fd5b5035919050565b6000815180845260005b81811015610bf057602081850181015186830182015201610bd4565b506000602082860101526020601f19601f83011685010191505092915050565b6001600160a01b038a16815261012060208201819052600090610c358382018c610bca565b90508281036040840152610c49818b610bca565b90508860608401528760808401528660a08401528560c084015282810360e0840152610c758186610bca565b9150508215156101008301529a9950505050505050505050565b604080825283519082018190526000906020906060840190828701845b82811015610cd15781516001600160a01b031684529284019290840190600101610cac565b5050508381038285015284518082528583019183019060005b81811015610d0657835183529284019291840191600101610cea565b5090979650505050505050565b634e487b7160e01b600052604160045260246000fd5b600082601f830112610d3a57600080fd5b813567ffffffffffffffff80821115610d5557610d55610d13565b604051601f8301601f19908116603f01168101908282118183101715610d7d57610d7d610d13565b81604052838152866020858801011115610d9657600080fd5b836020870160208301376000602085830101528094505050505092915050565b60008060008060008060c08789031215610dcf57600080fd5b86356001600160a01b0381168114610de657600080fd5b9550602087013567ffffffffffffffff80821115610e0357600080fd5b610e0f8a838b01610d29565b96506040890135915080821115610e2557600080fd5b610e318a838b01610d29565b9550606089013594506080890135935060a0890135915080821115610e5557600080fd5b50610e6289828a01610d29565b9150509295509295509295565b60008151808452602080850194506020840160005b83811015610ea95781516001600160a01b031687529582019590820190600101610e84565b509495945050505050565b60008151808452602080850194506020840160005b83811015610ea957815187529582019590820190600101610ec9565b600060208083018184528085518083526040925060408601915060408160051b87010184880160005b8381101561100857888303603f19018552815180516001600160a01b0316845261016088820151818a870152610f4682870182610bca565b9150508782015185820389870152610f5e8282610bca565b606084810151908801526080808501519088015260a0808501519088015260c0808501519088015260e080850151888303828a01529193509150610fa28382610bca565b925050506101008083015186830382880152610fbe8382610e6f565b925050506101208083015186830382880152610fda8382610eb4565b92505050610140808301519250610ff48187018415159052565b509588019593505090860190600101610f0e565b509098975050505050505050565b634e487b7160e01b600052601160045260246000fd5b8082018082111561103f5761103f611016565b92915050565b600181811c9082168061105957607f821691505b602082108103610bab57634e487b7160e01b600052602260045260246000fd5b601f8211156110c5576000816000526020600020601f850160051c810160208610156110a25750805b601f850160051c820191505b818110156110c1578281556001016110ae565b5050505b505050565b815167ffffffffffffffff8111156110e4576110e4610d13565b6110f8816110f28454611045565b84611079565b602080601f83116001811461112d57600084156111155750858301515b600019600386901b1c1916600185901b1785556110c1565b600085815260208120601f198616915b8281101561115c5788860151825594840194600190910190840161113d565b508582101561117a5787850151600019600388901b60f8161c191681555b5050505050600190811b01905550565b60006001820161119c5761119c611016565b5060010190565b634e487b7160e01b600052603260045260246000fdfea264697066735822122096ed08feae70b2b7a13cfafda6d1f03ad761872503ca0a478edc1713b8f5a6cb64736f6c63430008180033",
  "devdoc": {
    "author": "rhbdl",
    "kind": "dev",
    "methods": {},
    "version": 1
  },
  "userdoc": {
    "kind": "user",
    "methods": {},
    "notice": "Smart contract to allow crowdfunding for buidlguidl batch1 project!",
    "version": 1
  },
  "storageLayout": {
    "storage": [
      {
        "astId": 32,
        "contract": "contracts/Crowdfunding.sol:Crowdfunding",
        "label": "campaigns",
        "offset": 0,
        "slot": "0",
        "type": "t_mapping(t_uint256,t_struct(Campaign)27_storage)"
      },
      {
        "astId": 35,
        "contract": "contracts/Crowdfunding.sol:Crowdfunding",
        "label": "campaignCount",
        "offset": 0,
        "slot": "1",
        "type": "t_uint256"
      }
    ],
    "types": {
      "t_address": {
        "encoding": "inplace",
        "label": "address",
        "numberOfBytes": "20"
      },
      "t_address_payable": {
        "encoding": "inplace",
        "label": "address payable",
        "numberOfBytes": "20"
      },
      "t_array(t_address)dyn_storage": {
        "base": "t_address",
        "encoding": "dynamic_array",
        "label": "address[]",
        "numberOfBytes": "32"
      },
      "t_array(t_uint256)dyn_storage": {
        "base": "t_uint256",
        "encoding": "dynamic_array",
        "label": "uint256[]",
        "numberOfBytes": "32"
      },
      "t_bool": {
        "encoding": "inplace",
        "label": "bool",
        "numberOfBytes": "1"
      },
      "t_mapping(t_uint256,t_struct(Campaign)27_storage)": {
        "encoding": "mapping",
        "key": "t_uint256",
        "label": "mapping(uint256 => struct Crowdfunding.Campaign)",
        "numberOfBytes": "32",
        "value": "t_struct(Campaign)27_storage"
      },
      "t_string_storage": {
        "encoding": "bytes",
        "label": "string",
        "numberOfBytes": "32"
      },
      "t_struct(Campaign)27_storage": {
        "encoding": "inplace",
        "label": "struct Crowdfunding.Campaign",
        "members": [
          {
            "astId": 4,
            "contract": "contracts/Crowdfunding.sol:Crowdfunding",
            "label": "owner",
            "offset": 0,
            "slot": "0",
            "type": "t_address_payable"
          },
          {
            "astId": 6,
            "contract": "contracts/Crowdfunding.sol:Crowdfunding",
            "label": "title",
            "offset": 0,
            "slot": "1",
            "type": "t_string_storage"
          },
          {
            "astId": 8,
            "contract": "contracts/Crowdfunding.sol:Crowdfunding",
            "label": "description",
            "offset": 0,
            "slot": "2",
            "type": "t_string_storage"
          },
          {
            "astId": 10,
            "contract": "contracts/Crowdfunding.sol:Crowdfunding",
            "label": "id",
            "offset": 0,
            "slot": "3",
            "type": "t_uint256"
          },
          {
            "astId": 12,
            "contract": "contracts/Crowdfunding.sol:Crowdfunding",
            "label": "goal",
            "offset": 0,
            "slot": "4",
            "type": "t_uint256"
          },
          {
            "astId": 14,
            "contract": "contracts/Crowdfunding.sol:Crowdfunding",
            "label": "deadline",
            "offset": 0,
            "slot": "5",
            "type": "t_uint256"
          },
          {
            "astId": 16,
            "contract": "contracts/Crowdfunding.sol:Crowdfunding",
            "label": "raised",
            "offset": 0,
            "slot": "6",
            "type": "t_uint256"
          },
          {
            "astId": 18,
            "contract": "contracts/Crowdfunding.sol:Crowdfunding",
            "label": "image",
            "offset": 0,
            "slot": "7",
            "type": "t_string_storage"
          },
          {
            "astId": 21,
            "contract": "contracts/Crowdfunding.sol:Crowdfunding",
            "label": "contributors",
            "offset": 0,
            "slot": "8",
            "type": "t_array(t_address)dyn_storage"
          },
          {
            "astId": 24,
            "contract": "contracts/Crowdfunding.sol:Crowdfunding",
            "label": "contributions",
            "offset": 0,
            "slot": "9",
            "type": "t_array(t_uint256)dyn_storage"
          },
          {
            "astId": 26,
            "contract": "contracts/Crowdfunding.sol:Crowdfunding",
            "label": "isArchived",
            "offset": 0,
            "slot": "10",
            "type": "t_bool"
          }
        ],
        "numberOfBytes": "352"
      },
      "t_uint256": {
        "encoding": "inplace",
        "label": "uint256",
        "numberOfBytes": "32"
      }
    }
  }
}